:100000000C9454000C9473000C9473000C947300C3
:100010000C9473000C9473000C9473000C94730094
:100020000C9473000C9473000C9473000C94730084
:100030000C9473000C9473000C9473000C94730074
:100040000C9473000C9473000C9473000C94730064
:100050000C9473000C9473000C9473000C94730054
:100060000C9473000C9473000C9473000C94730044
:100070000C9473000C9473000C9473000C94730034
:100080000C9473000C9473000C947300C000C700B0
:10009000D700DE00EA00FA0001013701370129012B
:1000A000370137012F01370111241FBECFEFD0E4F4
:1000B000DEBFCDBF11E0A0E0B1E0E6ECF2E000E091
:1000C0000BBF02C007900D92AE30B107D9F711E017
:1000D000AEE0B1E001C01D92A131B107E1F70E948D
:1000E0003B010C9461010C940000CF93DF9300D08E
:1000F0001F92CDB7DEB789837B836A8389818A307B
:1001000031F48A819B81BC018DE00E94750080ECF6
:1001100090E0FC018081882F90E080729927009701
:10012000B1F386EC90E02981FC01208380E090E02F
:100130000F900F900F90DF91CF910895CF93DF93A1
:10014000CDB7DEB780E290E0FC01808180958370BE
:1001500080930E0180910F0190911001CC01A0E0DD
:10016000B0E040E050E026E030E0841B950B28171B
:10017000390708F452C08A5B9F4FFC010C94580168
:1001800081E090E09093100180930F014DC0809129
:100190000E01882F90E081709927009739F082E056
:1001A00090E09093100180930F013EC03DC083E02A
:1001B00090E09093100180930F0136C080910E0162
:1001C000882339F484E090E09093100180930F012C
:1001D0002BC02AC080910E01882F90E08170992752
:1001E000009739F085E090E09093100180930F0123
:1001F0001BC01AC086E090E09093100180930F011D
:1002000013C080910E01882339F481E090E090932F
:10021000100180930F0108C007C081E090E0909327
:10022000100180930F01000080910F019091100147
:10023000CC01A0E0B0E040E050E026E030E0841BDC
:10024000950B2817390788F0835B9F4FFC010C94AE
:10025000580185E290E02AEAFC01208309C085E28A
:1002600090E025E5FC01208303C0000001C00000F0
:10027000DF91CF910895CF93DF93CDB7DEB781E2C1
:1002800090E0FC01108282E290E02FEFFC012083DD
:1002900084E290E02FEFFC01208385E290E0FC01F6
:1002A00010821092100110920F010E949E00FDCF4B
:1002B000EE0FFF1F0024001C0BBE0790F691E02DEF
:0602C0000994F894FFCF41
:0E02C6000000000200000000750000000000B3
:00000001FF
