:100000000C9454000C9473000C9473000C947300C3
:100010000C9473000C9473000C9473000C94730094
:100020000C9473000C9473000C9473000C94730084
:100030000C9473000C9473000C9473000C94730074
:100040000C9473000C9473000C9473000C94730064
:100050000C9473000C9473000C9473000C94730054
:100060000C9473000C9473000C9473000C94730044
:100070000C9473000C9473000C9473000C94730034
:100080000C9473000C9473000C947300C000CD00AA
:10009000C7000A01110118011F01820182016501D7
:1000A0006B0173017B01820111241FBECFEFD0E4ED
:1000B000DEBFCDBF11E0A0E0B1E0ECE5F3E000E091
:1000C0000BBF02C007900D92AE30B107D9F711E017
:1000D000AEE0B1E001C01D92A131B107E1F70E948D
:1000E00086010C94AC010C940000CF93DF9300D0F8
:1000F0001F92CDB7DEB789837B836A8389818A307B
:1001000031F48A819B81BC018DE00E94750080ECF6
:1001100090E0FC018081882F90E080729927009701
:10012000B1F386EC90E02981FC01208380E090E02F
:100130000F900F900F90DF91CF910895CF93DF93A1
:10014000CDB7DEB780E290E0FC01808180958370BE
:1001500080930E0180910F0190911001CC01A0E0DD
:10016000B0E040E050E026E030E0841B950B28171B
:10017000390708F48EC08A5B9F4FFC010C94A301E1
:1001800082E090E09093100180930F0189C081E09C
:1001900090E09093100180930F0180910E01882FC1
:1001A00090E081709927009779F080910E01882F57
:1001B00090E082709927009739F085E090E0909365
:1001C000100180930F0125C080910E01882F90E0CF
:1001D00081709927009739F083E090E090931001A7
:1001E00080930F0116C080910E01882F90E08270DD
:1001F0009927009739F084E090E090931001809364
:100200000F0107C081E090E09093100180930F01EF
:1002100047C046C086E090E09093100180930F01A4
:100220003FC086E090E09093100180930F0138C0AA
:1002300086E090E09093100180930F0131C080918F
:100240000E01882F90E081709927009779F08091B6
:100250000E01882F90E082709927009739F085E091
:1002600090E09093100180930F0112C080910E01D5
:10027000882339F481E090E09093100180930F017E
:1002800007C086E090E09093100180930F0108C0B2
:1002900007C081E090E09093100180930F0100006F
:1002A00080910F0190911001CC01A0E0B0E040E0FE
:1002B00050E026E030E0841B950B2817390700F149
:1002C000835B9F4FFC010C94A30188E290E027E040
:1002D000FC01208318C088E290E0FC0120812F5FA0
:1002E000FC01208310C088E290E0FC0120812150B5
:1002F000FC01208308C088E290E0FC01108202C06B
:10030000000001C00000DF91CF910895CF93DF93EB
:10031000CDB7DEB781E290E0FC01108282E290E08E
:100320002FEFFC01208387E290E02FEFFC01208378
:1003300088E290E0FC0110821092100110920F01EF
:100340000E949E00FDCFEE0FFF1F0024001C0BBE7D
:0C0350000790F691E02D0994F894FFCF7F
:0E035C0000000002000000007500000000001C
:00000001FF
